{
  "_format": "hh-sol-artifact-1",
  "contractName": "SchoolCertificate",
  "sourceName": "contracts/SchoolCertificate.sol",
  "abi": [
    {
      "inputs": [
        {
          "internalType": "address",
          "name": "initialOwner",
          "type": "address"
        }
      ],
      "stateMutability": "nonpayable",
      "type": "constructor"
    },
    {
      "inputs": [
        {
          "internalType": "address",
          "name": "sender",
          "type": "address"
        },
        {
          "internalType": "uint256",
          "name": "tokenId",
          "type": "uint256"
        },
        {
          "internalType": "address",
          "name": "owner",
          "type": "address"
        }
      ],
      "name": "ERC721IncorrectOwner",
      "type": "error"
    },
    {
      "inputs": [
        {
          "internalType": "address",
          "name": "operator",
          "type": "address"
        },
        {
          "internalType": "uint256",
          "name": "tokenId",
          "type": "uint256"
        }
      ],
      "name": "ERC721InsufficientApproval",
      "type": "error"
    },
    {
      "inputs": [
        {
          "internalType": "address",
          "name": "approver",
          "type": "address"
        }
      ],
      "name": "ERC721InvalidApprover",
      "type": "error"
    },
    {
      "inputs": [
        {
          "internalType": "address",
          "name": "operator",
          "type": "address"
        }
      ],
      "name": "ERC721InvalidOperator",
      "type": "error"
    },
    {
      "inputs": [
        {
          "internalType": "address",
          "name": "owner",
          "type": "address"
        }
      ],
      "name": "ERC721InvalidOwner",
      "type": "error"
    },
    {
      "inputs": [
        {
          "internalType": "address",
          "name": "receiver",
          "type": "address"
        }
      ],
      "name": "ERC721InvalidReceiver",
      "type": "error"
    },
    {
      "inputs": [
        {
          "internalType": "address",
          "name": "sender",
          "type": "address"
        }
      ],
      "name": "ERC721InvalidSender",
      "type": "error"
    },
    {
      "inputs": [
        {
          "internalType": "uint256",
          "name": "tokenId",
          "type": "uint256"
        }
      ],
      "name": "ERC721NonexistentToken",
      "type": "error"
    },
    {
      "inputs": [
        {
          "internalType": "address",
          "name": "owner",
          "type": "address"
        }
      ],
      "name": "OwnableInvalidOwner",
      "type": "error"
    },
    {
      "inputs": [
        {
          "internalType": "address",
          "name": "account",
          "type": "address"
        }
      ],
      "name": "OwnableUnauthorizedAccount",
      "type": "error"
    },
    {
      "anonymous": false,
      "inputs": [
        {
          "indexed": true,
          "internalType": "address",
          "name": "owner",
          "type": "address"
        },
        {
          "indexed": true,
          "internalType": "address",
          "name": "approved",
          "type": "address"
        },
        {
          "indexed": true,
          "internalType": "uint256",
          "name": "tokenId",
          "type": "uint256"
        }
      ],
      "name": "Approval",
      "type": "event"
    },
    {
      "anonymous": false,
      "inputs": [
        {
          "indexed": true,
          "internalType": "address",
          "name": "owner",
          "type": "address"
        },
        {
          "indexed": true,
          "internalType": "address",
          "name": "operator",
          "type": "address"
        },
        {
          "indexed": false,
          "internalType": "bool",
          "name": "approved",
          "type": "bool"
        }
      ],
      "name": "ApprovalForAll",
      "type": "event"
    },
    {
      "anonymous": false,
      "inputs": [
        {
          "indexed": true,
          "internalType": "address",
          "name": "previousOwner",
          "type": "address"
        },
        {
          "indexed": true,
          "internalType": "address",
          "name": "newOwner",
          "type": "address"
        }
      ],
      "name": "OwnershipTransferred",
      "type": "event"
    },
    {
      "anonymous": false,
      "inputs": [
        {
          "indexed": true,
          "internalType": "address",
          "name": "from",
          "type": "address"
        },
        {
          "indexed": true,
          "internalType": "address",
          "name": "to",
          "type": "address"
        },
        {
          "indexed": true,
          "internalType": "uint256",
          "name": "tokenId",
          "type": "uint256"
        }
      ],
      "name": "Transfer",
      "type": "event"
    },
    {
      "inputs": [
        {
          "internalType": "address",
          "name": "",
          "type": "address"
        },
        {
          "internalType": "uint256",
          "name": "",
          "type": "uint256"
        }
      ],
      "name": "approve",
      "outputs": [],
      "stateMutability": "nonpayable",
      "type": "function"
    },
    {
      "inputs": [
        {
          "internalType": "address",
          "name": "owner",
          "type": "address"
        }
      ],
      "name": "balanceOf",
      "outputs": [
        {
          "internalType": "uint256",
          "name": "",
          "type": "uint256"
        }
      ],
      "stateMutability": "view",
      "type": "function"
    },
    {
      "inputs": [
        {
          "internalType": "uint256",
          "name": "tokenId",
          "type": "uint256"
        }
      ],
      "name": "getApproved",
      "outputs": [
        {
          "internalType": "address",
          "name": "",
          "type": "address"
        }
      ],
      "stateMutability": "view",
      "type": "function"
    },
    {
      "inputs": [
        {
          "internalType": "address",
          "name": "student",
          "type": "address"
        }
      ],
      "name": "getCertificatesByStudent",
      "outputs": [
        {
          "internalType": "uint256[]",
          "name": "",
          "type": "uint256[]"
        }
      ],
      "stateMutability": "view",
      "type": "function"
    },
    {
      "inputs": [
        {
          "internalType": "address",
          "name": "owner",
          "type": "address"
        },
        {
          "internalType": "address",
          "name": "operator",
          "type": "address"
        }
      ],
      "name": "isApprovedForAll",
      "outputs": [
        {
          "internalType": "bool",
          "name": "",
          "type": "bool"
        }
      ],
      "stateMutability": "view",
      "type": "function"
    },
    {
      "inputs": [
        {
          "internalType": "address",
          "name": "student",
          "type": "address"
        },
        {
          "internalType": "string",
          "name": "tokenURI_",
          "type": "string"
        }
      ],
      "name": "issueCertificate",
      "outputs": [],
      "stateMutability": "nonpayable",
      "type": "function"
    },
    {
      "inputs": [],
      "name": "name",
      "outputs": [
        {
          "internalType": "string",
          "name": "",
          "type": "string"
        }
      ],
      "stateMutability": "view",
      "type": "function"
    },
    {
      "inputs": [],
      "name": "owner",
      "outputs": [
        {
          "internalType": "address",
          "name": "",
          "type": "address"
        }
      ],
      "stateMutability": "view",
      "type": "function"
    },
    {
      "inputs": [
        {
          "internalType": "uint256",
          "name": "tokenId",
          "type": "uint256"
        }
      ],
      "name": "ownerOf",
      "outputs": [
        {
          "internalType": "address",
          "name": "",
          "type": "address"
        }
      ],
      "stateMutability": "view",
      "type": "function"
    },
    {
      "inputs": [],
      "name": "renounceOwnership",
      "outputs": [],
      "stateMutability": "nonpayable",
      "type": "function"
    },
    {
      "inputs": [
        {
          "internalType": "address",
          "name": "from",
          "type": "address"
        },
        {
          "internalType": "address",
          "name": "to",
          "type": "address"
        },
        {
          "internalType": "uint256",
          "name": "tokenId",
          "type": "uint256"
        }
      ],
      "name": "safeTransferFrom",
      "outputs": [],
      "stateMutability": "nonpayable",
      "type": "function"
    },
    {
      "inputs": [
        {
          "internalType": "address",
          "name": "",
          "type": "address"
        },
        {
          "internalType": "address",
          "name": "",
          "type": "address"
        },
        {
          "internalType": "uint256",
          "name": "",
          "type": "uint256"
        },
        {
          "internalType": "bytes",
          "name": "",
          "type": "bytes"
        }
      ],
      "name": "safeTransferFrom",
      "outputs": [],
      "stateMutability": "nonpayable",
      "type": "function"
    },
    {
      "inputs": [
        {
          "internalType": "address",
          "name": "",
          "type": "address"
        },
        {
          "internalType": "bool",
          "name": "",
          "type": "bool"
        }
      ],
      "name": "setApprovalForAll",
      "outputs": [],
      "stateMutability": "nonpayable",
      "type": "function"
    },
    {
      "inputs": [
        {
          "internalType": "bytes4",
          "name": "interfaceId",
          "type": "bytes4"
        }
      ],
      "name": "supportsInterface",
      "outputs": [
        {
          "internalType": "bool",
          "name": "",
          "type": "bool"
        }
      ],
      "stateMutability": "view",
      "type": "function"
    },
    {
      "inputs": [],
      "name": "symbol",
      "outputs": [
        {
          "internalType": "string",
          "name": "",
          "type": "string"
        }
      ],
      "stateMutability": "view",
      "type": "function"
    },
    {
      "inputs": [
        {
          "internalType": "uint256",
          "name": "tokenId",
          "type": "uint256"
        }
      ],
      "name": "tokenURI",
      "outputs": [
        {
          "internalType": "string",
          "name": "",
          "type": "string"
        }
      ],
      "stateMutability": "view",
      "type": "function"
    },
    {
      "inputs": [
        {
          "internalType": "address",
          "name": "",
          "type": "address"
        },
        {
          "internalType": "address",
          "name": "",
          "type": "address"
        },
        {
          "internalType": "uint256",
          "name": "",
          "type": "uint256"
        }
      ],
      "name": "transferFrom",
      "outputs": [],
      "stateMutability": "nonpayable",
      "type": "function"
    },
    {
      "inputs": [
        {
          "internalType": "address",
          "name": "newOwner",
          "type": "address"
        }
      ],
      "name": "transferOwnership",
      "outputs": [],
      "stateMutability": "nonpayable",
      "type": "function"
    }
  ],
  "bytecode": "0x608060405234801561001057600080fd5b506040516129b63803806129b683398181016040528101906100329190610272565b806040518060400160405280601e81526020017f5363686f6f6c20416368696576656d656e7420436572746966696361746500008152506040518060400160405280600381526020017f534143000000000000000000000000000000000000000000000000000000000081525081600090816100ae91906104ef565b5080600190816100be91906104ef565b505050600073ffffffffffffffffffffffffffffffffffffffff168173ffffffffffffffffffffffffffffffffffffffff16036101335760006040517f1e4fbdf700000000000000000000000000000000000000000000000000000000815260040161012a91906105d0565b60405180910390fd5b6101428161014960201b60201c565b50506105eb565b6000600660009054906101000a900473ffffffffffffffffffffffffffffffffffffffff16905081600660006101000a81548173ffffffffffffffffffffffffffffffffffffffff021916908373ffffffffffffffffffffffffffffffffffffffff1602179055508173ffffffffffffffffffffffffffffffffffffffff168173ffffffffffffffffffffffffffffffffffffffff167f8be0079c531659141344cd1fd0a4f28419497f9722a3daafe3b4186f6b6457e060405160405180910390a35050565b600080fd5b600073ffffffffffffffffffffffffffffffffffffffff82169050919050565b600061023f82610214565b9050919050565b61024f81610234565b811461025a57600080fd5b50565b60008151905061026c81610246565b92915050565b6000602082840312156102885761028761020f565b5b60006102968482850161025d565b91505092915050565b600081519050919050565b7f4e487b7100000000000000000000000000000000000000000000000000000000600052604160045260246000fd5b7f4e487b7100000000000000000000000000000000000000000000000000000000600052602260045260246000fd5b6000600282049050600182168061032057607f821691505b602082108103610333576103326102d9565b5b50919050565b60008190508160005260206000209050919050565b60006020601f8301049050919050565b600082821b905092915050565b60006008830261039b7fffffffffffffffffffffffffffffffffffffffffffffffffffffffffffffffff8261035e565b6103a5868361035e565b95508019841693508086168417925050509392505050565b6000819050919050565b6000819050919050565b60006103ec6103e76103e2846103bd565b6103c7565b6103bd565b9050919050565b6000819050919050565b610406836103d1565b61041a610412826103f3565b84845461036b565b825550505050565b600090565b61042f610422565b61043a8184846103fd565b505050565b5b8181101561045e57610453600082610427565b600181019050610440565b5050565b601f8211156104a35761047481610339565b61047d8461034e565b8101602085101561048c578190505b6104a06104988561034e565b83018261043f565b50505b505050565b600082821c905092915050565b60006104c6600019846008026104a8565b1980831691505092915050565b60006104df83836104b5565b9150826002028217905092915050565b6104f88261029f565b67ffffffffffffffff811115610511576105106102aa565b5b61051b8254610308565b610526828285610462565b600060209050601f8311600181146105595760008415610547578287015190505b61055185826104d3565b8655506105b9565b601f19841661056786610339565b60005b8281101561058f5784890151825560018201915060208501945060208101905061056a565b868310156105ac57848901516105a8601f8916826104b5565b8355505b6001600288020188555050505b505050505050565b6105ca81610234565b82525050565b60006020820190506105e560008301846105c1565b92915050565b6123bc806105fa6000396000f3fe608060405234801561001057600080fd5b50600436106101165760003560e01c80638da5cb5b116100a2578063bb721aab11610071578063bb721aab146102cb578063c87b56dd146102e7578063e985e9c514610317578063ea09251814610347578063f2fde38b1461037757610116565b80638da5cb5b1461025757806395d89b4114610275578063a22cb46514610293578063b88d4fde146102af57610116565b806323b872dd116100e957806323b872dd146101b557806342842e0e146101d15780636352211e146101ed57806370a082311461021d578063715018a61461024d57610116565b806301ffc9a71461011b57806306fdde031461014b578063081812fc14610169578063095ea7b314610199575b600080fd5b6101356004803603810190610130919061168a565b610393565b60405161014291906116d2565b60405180910390f35b610153610475565b604051610160919061177d565b60405180910390f35b610183600480360381019061017e91906117d5565b610507565b6040516101909190611843565b60405180910390f35b6101b360048036038101906101ae919061188a565b610523565b005b6101cf60048036038101906101ca91906118ca565b610568565b005b6101eb60048036038101906101e691906118ca565b6105ae565b005b610207600480360381019061020291906117d5565b6105ce565b6040516102149190611843565b60405180910390f35b6102376004803603810190610232919061191d565b6105e0565b6040516102449190611959565b60405180910390f35b61025561069a565b005b61025f6106ae565b60405161026c9190611843565b60405180910390f35b61027d6106d8565b60405161028a919061177d565b60405180910390f35b6102ad60048036038101906102a891906119a0565b61076a565b005b6102c960048036038101906102c49190611b15565b6107af565b005b6102e560048036038101906102e09190611c39565b6107f6565b005b61030160048036038101906102fc91906117d5565b6108ad565b60405161030e919061177d565b60405180910390f35b610331600480360381019061032c9190611c95565b61095c565b60405161033e91906116d2565b60405180910390f35b610361600480360381019061035c919061191d565b6109f0565b60405161036e9190611d93565b60405180910390f35b610391600480360381019061038c919061191d565b610a87565b005b60007f80ac58cd000000000000000000000000000000000000000000000000000000007bffffffffffffffffffffffffffffffffffffffffffffffffffffffff1916827bffffffffffffffffffffffffffffffffffffffffffffffffffffffff1916148061045e57507f5b5e139f000000000000000000000000000000000000000000000000000000007bffffffffffffffffffffffffffffffffffffffffffffffffffffffff1916827bffffffffffffffffffffffffffffffffffffffffffffffffffffffff1916145b8061046e575061046d82610b0d565b5b9050919050565b60606000805461048490611de4565b80601f01602080910402602001604051908101604052809291908181526020018280546104b090611de4565b80156104fd5780601f106104d2576101008083540402835291602001916104fd565b820191906000526020600020905b8154815290600101906020018083116104e057829003601f168201915b5050505050905090565b600061051282610b77565b5061051c82610bff565b9050919050565b6000610564576040517f08c379a000000000000000000000000000000000000000000000000000000000815260040161055b90611ead565b60405180910390fd5b5050565b60006105a9576040517f08c379a00000000000000000000000000000000000000000000000000000000081526004016105a090611f65565b60405180910390fd5b505050565b6105c9838383604051806020016040528060008152506107af565b505050565b60006105d982610b77565b9050919050565b60008073ffffffffffffffffffffffffffffffffffffffff168273ffffffffffffffffffffffffffffffffffffffff16036106535760006040517f89c62b6400000000000000000000000000000000000000000000000000000000815260040161064a9190611843565b60405180910390fd5b600360008373ffffffffffffffffffffffffffffffffffffffff1673ffffffffffffffffffffffffffffffffffffffff168152602001908152602001600020549050919050565b6106a2610c3c565b6106ac6000610cc3565b565b6000600660009054906101000a900473ffffffffffffffffffffffffffffffffffffffff16905090565b6060600180546106e790611de4565b80601f016020809104026020016040519081016040528092919081815260200182805461071390611de4565b80156107605780601f1061073557610100808354040283529160200191610760565b820191906000526020600020905b81548152906001019060200180831161074357829003601f168201915b5050505050905090565b60006107ab576040517f08c379a00000000000000000000000000000000000000000000000000000000081526004016107a290611ead565b60405180910390fd5b5050565b60006107f0576040517f08c379a00000000000000000000000000000000000000000000000000000000081526004016107e790611f65565b60405180910390fd5b50505050565b6107fe610c3c565b600060076000815461080f90611fb4565b91905081905590506108218382610d89565b8160086000838152602001908152602001600020908161084191906121a8565b50600960008473ffffffffffffffffffffffffffffffffffffffff1673ffffffffffffffffffffffffffffffffffffffff168152602001908152602001600020819080600181540180825580915050600190039060005260206000200160009091909190915055505050565b60606108b8826105ce565b506008600083815260200190815260200160002080546108d790611de4565b80601f016020809104026020016040519081016040528092919081815260200182805461090390611de4565b80156109505780601f1061092557610100808354040283529160200191610950565b820191906000526020600020905b81548152906001019060200180831161093357829003601f168201915b50505050509050919050565b6000600560008473ffffffffffffffffffffffffffffffffffffffff1673ffffffffffffffffffffffffffffffffffffffff16815260200190815260200160002060008373ffffffffffffffffffffffffffffffffffffffff1673ffffffffffffffffffffffffffffffffffffffff16815260200190815260200160002060009054906101000a900460ff16905092915050565b6060600960008373ffffffffffffffffffffffffffffffffffffffff1673ffffffffffffffffffffffffffffffffffffffff168152602001908152602001600020805480602002602001604051908101604052809291908181526020018280548015610a7b57602002820191906000526020600020905b815481526020019060010190808311610a67575b50505050509050919050565b610a8f610c3c565b600073ffffffffffffffffffffffffffffffffffffffff168173ffffffffffffffffffffffffffffffffffffffff1603610b015760006040517f1e4fbdf7000000000000000000000000000000000000000000000000000000008152600401610af89190611843565b60405180910390fd5b610b0a81610cc3565b50565b60007f01ffc9a7000000000000000000000000000000000000000000000000000000007bffffffffffffffffffffffffffffffffffffffffffffffffffffffff1916827bffffffffffffffffffffffffffffffffffffffffffffffffffffffff1916149050919050565b600080610b8383610da7565b9050600073ffffffffffffffffffffffffffffffffffffffff168173ffffffffffffffffffffffffffffffffffffffff1603610bf657826040517f7e273289000000000000000000000000000000000000000000000000000000008152600401610bed9190611959565b60405180910390fd5b80915050919050565b60006004600083815260200190815260200160002060009054906101000a900473ffffffffffffffffffffffffffffffffffffffff169050919050565b610c44610de4565b73ffffffffffffffffffffffffffffffffffffffff16610c626106ae565b73ffffffffffffffffffffffffffffffffffffffff1614610cc157610c85610de4565b6040517f118cdaa7000000000000000000000000000000000000000000000000000000008152600401610cb89190611843565b60405180910390fd5b565b6000600660009054906101000a900473ffffffffffffffffffffffffffffffffffffffff16905081600660006101000a81548173ffffffffffffffffffffffffffffffffffffffff021916908373ffffffffffffffffffffffffffffffffffffffff1602179055508173ffffffffffffffffffffffffffffffffffffffff168173ffffffffffffffffffffffffffffffffffffffff167f8be0079c531659141344cd1fd0a4f28419497f9722a3daafe3b4186f6b6457e060405160405180910390a35050565b610da3828260405180602001604052806000815250610dec565b5050565b60006002600083815260200190815260200160002060009054906101000a900473ffffffffffffffffffffffffffffffffffffffff169050919050565b600033905090565b610df68383610e10565b610e0b610e01610de4565b6000858585610f09565b505050565b600073ffffffffffffffffffffffffffffffffffffffff168273ffffffffffffffffffffffffffffffffffffffff1603610e825760006040517f64a0ae92000000000000000000000000000000000000000000000000000000008152600401610e799190611843565b60405180910390fd5b6000610e90838360006110ba565b9050600073ffffffffffffffffffffffffffffffffffffffff168173ffffffffffffffffffffffffffffffffffffffff1614610f045760006040517f73c6ac6e000000000000000000000000000000000000000000000000000000008152600401610efb9190611843565b60405180910390fd5b505050565b60008373ffffffffffffffffffffffffffffffffffffffff163b11156110b3578273ffffffffffffffffffffffffffffffffffffffff1663150b7a02868685856040518563ffffffff1660e01b8152600401610f6894939291906122cf565b6020604051808303816000875af1925050508015610fa457506040513d601f19601f82011682018060405250810190610fa19190612330565b60015b611028573d8060008114610fd4576040519150601f19603f3d011682016040523d82523d6000602084013e610fd9565b606091505b50600081510361102057836040517f64a0ae920000000000000000000000000000000000000000000000000000000081526004016110179190611843565b60405180910390fd5b805181602001fd5b63150b7a0260e01b7bffffffffffffffffffffffffffffffffffffffffffffffffffffffff1916817bffffffffffffffffffffffffffffffffffffffffffffffffffffffff1916146110b157836040517f64a0ae920000000000000000000000000000000000000000000000000000000081526004016110a89190611843565b60405180910390fd5b505b5050505050565b6000806110c684610da7565b9050600073ffffffffffffffffffffffffffffffffffffffff168373ffffffffffffffffffffffffffffffffffffffff1614611108576111078184866112d4565b5b600073ffffffffffffffffffffffffffffffffffffffff168173ffffffffffffffffffffffffffffffffffffffff16146111995761114a600085600080611398565b6001600360008373ffffffffffffffffffffffffffffffffffffffff1673ffffffffffffffffffffffffffffffffffffffff168152602001908152602001600020600082825403925050819055505b600073ffffffffffffffffffffffffffffffffffffffff168573ffffffffffffffffffffffffffffffffffffffff161461121c576001600360008773ffffffffffffffffffffffffffffffffffffffff1673ffffffffffffffffffffffffffffffffffffffff168152602001908152602001600020600082825401925050819055505b846002600086815260200190815260200160002060006101000a81548173ffffffffffffffffffffffffffffffffffffffff021916908373ffffffffffffffffffffffffffffffffffffffff160217905550838573ffffffffffffffffffffffffffffffffffffffff168273ffffffffffffffffffffffffffffffffffffffff167fddf252ad1be2c89b69c2b068fc378daa952ba7f163c4a11628f55a4df523b3ef60405160405180910390a4809150509392505050565b6112df83838361155d565b61139357600073ffffffffffffffffffffffffffffffffffffffff168373ffffffffffffffffffffffffffffffffffffffff160361135457806040517f7e27328900000000000000000000000000000000000000000000000000000000815260040161134b9190611959565b60405180910390fd5b81816040517f177e802f00000000000000000000000000000000000000000000000000000000815260040161138a92919061235d565b60405180910390fd5b505050565b80806113d15750600073ffffffffffffffffffffffffffffffffffffffff168273ffffffffffffffffffffffffffffffffffffffff1614155b156115055760006113e184610b77565b9050600073ffffffffffffffffffffffffffffffffffffffff168373ffffffffffffffffffffffffffffffffffffffff161415801561144c57508273ffffffffffffffffffffffffffffffffffffffff168173ffffffffffffffffffffffffffffffffffffffff1614155b801561145f575061145d818461095c565b155b156114a157826040517fa9fbf51f0000000000000000000000000000000000000000000000000000000081526004016114989190611843565b60405180910390fd5b811561150357838573ffffffffffffffffffffffffffffffffffffffff168273ffffffffffffffffffffffffffffffffffffffff167f8c5be1e5ebec7d5bd14f71427d1e84f3dd0314c0f7b2291e5b200ac8c7c3b92560405160405180910390a45b505b836004600085815260200190815260200160002060006101000a81548173ffffffffffffffffffffffffffffffffffffffff021916908373ffffffffffffffffffffffffffffffffffffffff16021790555050505050565b60008073ffffffffffffffffffffffffffffffffffffffff168373ffffffffffffffffffffffffffffffffffffffff161415801561161557508273ffffffffffffffffffffffffffffffffffffffff168473ffffffffffffffffffffffffffffffffffffffff1614806115d657506115d5848461095c565b5b8061161457508273ffffffffffffffffffffffffffffffffffffffff166115fc83610bff565b73ffffffffffffffffffffffffffffffffffffffff16145b5b90509392505050565b6000604051905090565b600080fd5b600080fd5b60007fffffffff0000000000000000000000000000000000000000000000000000000082169050919050565b61166781611632565b811461167257600080fd5b50565b6000813590506116848161165e565b92915050565b6000602082840312156116a05761169f611628565b5b60006116ae84828501611675565b91505092915050565b60008115159050919050565b6116cc816116b7565b82525050565b60006020820190506116e760008301846116c3565b92915050565b600081519050919050565b600082825260208201905092915050565b60005b8381101561172757808201518184015260208101905061170c565b60008484015250505050565b6000601f19601f8301169050919050565b600061174f826116ed565b61175981856116f8565b9350611769818560208601611709565b61177281611733565b840191505092915050565b600060208201905081810360008301526117978184611744565b905092915050565b6000819050919050565b6117b28161179f565b81146117bd57600080fd5b50565b6000813590506117cf816117a9565b92915050565b6000602082840312156117eb576117ea611628565b5b60006117f9848285016117c0565b91505092915050565b600073ffffffffffffffffffffffffffffffffffffffff82169050919050565b600061182d82611802565b9050919050565b61183d81611822565b82525050565b60006020820190506118586000830184611834565b92915050565b61186781611822565b811461187257600080fd5b50565b6000813590506118848161185e565b92915050565b600080604083850312156118a1576118a0611628565b5b60006118af85828601611875565b92505060206118c0858286016117c0565b9150509250929050565b6000806000606084860312156118e3576118e2611628565b5b60006118f186828701611875565b935050602061190286828701611875565b9250506040611913868287016117c0565b9150509250925092565b60006020828403121561193357611932611628565b5b600061194184828501611875565b91505092915050565b6119538161179f565b82525050565b600060208201905061196e600083018461194a565b92915050565b61197d816116b7565b811461198857600080fd5b50565b60008135905061199a81611974565b92915050565b600080604083850312156119b7576119b6611628565b5b60006119c585828601611875565b92505060206119d68582860161198b565b9150509250929050565b600080fd5b600080fd5b7f4e487b7100000000000000000000000000000000000000000000000000000000600052604160045260246000fd5b611a2282611733565b810181811067ffffffffffffffff82111715611a4157611a406119ea565b5b80604052505050565b6000611a5461161e565b9050611a608282611a19565b919050565b600067ffffffffffffffff821115611a8057611a7f6119ea565b5b611a8982611733565b9050602081019050919050565b82818337600083830152505050565b6000611ab8611ab384611a65565b611a4a565b905082815260208101848484011115611ad457611ad36119e5565b5b611adf848285611a96565b509392505050565b600082601f830112611afc57611afb6119e0565b5b8135611b0c848260208601611aa5565b91505092915050565b60008060008060808587031215611b2f57611b2e611628565b5b6000611b3d87828801611875565b9450506020611b4e87828801611875565b9350506040611b5f878288016117c0565b925050606085013567ffffffffffffffff811115611b8057611b7f61162d565b5b611b8c87828801611ae7565b91505092959194509250565b600067ffffffffffffffff821115611bb357611bb26119ea565b5b611bbc82611733565b9050602081019050919050565b6000611bdc611bd784611b98565b611a4a565b905082815260208101848484011115611bf857611bf76119e5565b5b611c03848285611a96565b509392505050565b600082601f830112611c2057611c1f6119e0565b5b8135611c30848260208601611bc9565b91505092915050565b60008060408385031215611c5057611c4f611628565b5b6000611c5e85828601611875565b925050602083013567ffffffffffffffff811115611c7f57611c7e61162d565b5b611c8b85828601611c0b565b9150509250929050565b60008060408385031215611cac57611cab611628565b5b6000611cba85828601611875565b9250506020611ccb85828601611875565b9150509250929050565b600081519050919050565b600082825260208201905092915050565b6000819050602082019050919050565b611d0a8161179f565b82525050565b6000611d1c8383611d01565b60208301905092915050565b6000602082019050919050565b6000611d4082611cd5565b611d4a8185611ce0565b9350611d5583611cf1565b8060005b83811015611d86578151611d6d8882611d10565b9750611d7883611d28565b925050600181019050611d59565b5085935050505092915050565b60006020820190508181036000830152611dad8184611d35565b905092915050565b7f4e487b7100000000000000000000000000000000000000000000000000000000600052602260045260246000fd5b60006002820490506001821680611dfc57607f821691505b602082108103611e0f57611e0e611db5565b5b50919050565b7f5363686f6f6c43657274696669636174653a2054686973206973206120536f7560008201527f6c2d426f756e6420546f6b656e20616e642063616e6e6f74206265206170707260208201527f6f7665642e000000000000000000000000000000000000000000000000000000604082015250565b6000611e976045836116f8565b9150611ea282611e15565b606082019050919050565b60006020820190508181036000830152611ec681611e8a565b9050919050565b7f5363686f6f6c43657274696669636174653a2054686973206973206120536f7560008201527f6c2d426f756e6420546f6b656e20616e642063616e6e6f74206265207472616e60208201527f736665727265642e000000000000000000000000000000000000000000000000604082015250565b6000611f4f6048836116f8565b9150611f5a82611ecd565b606082019050919050565b60006020820190508181036000830152611f7e81611f42565b9050919050565b7f4e487b7100000000000000000000000000000000000000000000000000000000600052601160045260246000fd5b6000611fbf8261179f565b91507fffffffffffffffffffffffffffffffffffffffffffffffffffffffffffffffff8203611ff157611ff0611f85565b5b600182019050919050565b60008190508160005260206000209050919050565b60006020601f8301049050919050565b600082821b905092915050565b60006008830261205e7fffffffffffffffffffffffffffffffffffffffffffffffffffffffffffffffff82612021565b6120688683612021565b95508019841693508086168417925050509392505050565b6000819050919050565b60006120a56120a061209b8461179f565b612080565b61179f565b9050919050565b6000819050919050565b6120bf8361208a565b6120d36120cb826120ac565b84845461202e565b825550505050565b600090565b6120e86120db565b6120f38184846120b6565b505050565b5b818110156121175761210c6000826120e0565b6001810190506120f9565b5050565b601f82111561215c5761212d81611ffc565b61213684612011565b81016020851015612145578190505b61215961215185612011565b8301826120f8565b50505b505050565b600082821c905092915050565b600061217f60001984600802612161565b1980831691505092915050565b6000612198838361216e565b9150826002028217905092915050565b6121b1826116ed565b67ffffffffffffffff8111156121ca576121c96119ea565b5b6121d48254611de4565b6121df82828561211b565b600060209050601f8311600181146122125760008415612200578287015190505b61220a858261218c565b865550612272565b601f19841661222086611ffc565b60005b8281101561224857848901518255600182019150602085019450602081019050612223565b868310156122655784890151612261601f89168261216e565b8355505b6001600288020188555050505b505050505050565b600081519050919050565b600082825260208201905092915050565b60006122a18261227a565b6122ab8185612285565b93506122bb818560208601611709565b6122c481611733565b840191505092915050565b60006080820190506122e46000830187611834565b6122f16020830186611834565b6122fe604083018561194a565b81810360608301526123108184612296565b905095945050505050565b60008151905061232a8161165e565b92915050565b60006020828403121561234657612345611628565b5b60006123548482850161231b565b91505092915050565b60006040820190506123726000830185611834565b61237f602083018461194a565b939250505056fea26469706673582212207b4d590f0d67934741149832fcc715604853abc0ac2149c424f65236fac3237064736f6c634300081c0033",
  "linkReferences": {},
  "deployedLinkReferences": {}
}